:020000040800F2
:10000000C80F00206902000801360008312A0008E4
:10001000FD35000879100008CD4D000800000000F3
:10002000000000000000000000000000AD3B0008E0
:1000300085200008000000009D360008C53C00082F
:10004000830200088302000883020008830200087C
:10005000830200088302000883020008830200086C
:10006000830200088302000883020008830200085C
:10007000830200088D1A000883020008BD1A0008D8
:10008000830200088302000883020008830200083C
:10009000830200088302000883020008830200082C
:1000A000553E00088302000883020008830200080E
:1000B0002D3F000883020008830200088302000825
:1000C00083020008830200088302000883020008FC
:1000D00083020008D94B000883020008830200084D
:1000E00083020008830200088302000883020008DC
:1000F00083020008830200088302000883020008CC
:1001000083020008830200088302000883020008BB
:10011000BD4800088302000883020008830200082B
:10012000DD1A000883020008051B0008830200088E
:10013000830200088302000883020008830200088B
:10014000830200088302000883020008830200087B
:100150008302000883020008351B000883020008A0
:10016000830200088302000883020008830200085B
:10017000830200088302000883020008830200084B
:10018000830200088302000800F002F800F05CF827
:100190000AA090E8000C82448344AAF10107DA45E2
:1001A00001D100F051F8AFF2090EBAE80F0013F0D8
:1001B000010F18BFFB1A43F0010318477C7A0000B7
:1001C0009C7A00000A444FF0000C10F8013B13F039
:1001D000070408BF10F8014B1D1108BF10F8015BA0
:1001E000641E05D010F8016B641E01F8016BF9D193
:1001F00013F0080F1EBF10F8014BAD1C0C1B09D1EA
:100200006D1E58BF01F801CBFAD505E014F8016B5B
:1002100001F8016B6D1EF9D59142D6D370470000ED
:100220000023002400250026103A28BF78C1FBD8FF
:10023000520728BF30C148BF0B6070471FB507F099
:1002400072FC1FBD10B510BD00F06EF81146FFF72F
:10025000F5FF06F061FA00F08CF803B4FFF7F2FF47
:1002600003BC05F09EFA0000094880470948004792
:10027000FEE7FEE7FEE7FEE7FEE7FEE7FEE7FEE756
:10028000FEE7FEE704480549054A064B70470000B3
:10029000C93C000889010008C8090020C80F0020D7
:1002A000C80B0020C80B002070474FF0000200B5BB
:1002B000134694469646203922BFA0E80C50A0E889
:1002C0000C50B1F12001BFF4F7AF090728BFA0E837
:1002D0000C5048BF0CC05DF804EB890028BF40F803
:1002E000042B08BF704748BF20F8022B11F0804F45
:1002F00018BF00F8012B7047704770477047704770
:1003000010B500F009F8006810BD10B5044600F003
:1003100003F8046010BD0000004870476809002021
:1003200000487047680900207546FFF7F9FFAE46A0
:1003300005006946534620F00700854618B020B5F1
:10034000FFF7A0FFBDE820404FF000064FF0000788
:100350004FF000084FF0000B21F00701AC46ACE86D
:10036000C009ACE8C009ACE8C009ACE8C0098D46DA
:1003700070470446AFF300802046FFF76EFF000091
:1003800000B589B02948007801284CD1002005E04B
:100390002749095C01AA1154411CC8B22028F7DB87
:1003A0009DF80400AA283BD19DF80500AF2837D15D
:1003B0009DF80600122822D008DC01280DD0022862
:1003C00010D0102813D0112829D114E013281AD0E6
:1003D00014281CD0152822D11DE09DF8080000F03B
:1003E0004DFE1CE09DF8080000F08CFE17E001A80F
:1003F00000F0D6FA13E001A800F064FB0FE001A8BA
:1004000000F0F2FB0BE001A800F080FC07E001A87F
:1004100000F084FC03E001A800F012FD00BF00BF63
:1004200000200249087009B000BD0000080100204A
:10043000240500202DE9F04106460F460024A04681
:10044000AA222146641C164842542146641C425488
:10045000EF222146641C425400222146641C42546F
:100460002146641C46542146641C4754201F0C49F5
:10047000C870002506E00A48405D404400F0FF08CF
:10048000681CC5B2A542F6DB2046611CCCB204490B
:1004900001F800802146024801F04EFDBDE8F081E0
:1004A00044050020F0B52DED0A8B81B00646B0EE74
:1004B000408AF0EE608AB0EE419AF0EE619AB0EEBA
:1004C00042AAF0EE62AAB0EE43BAF0EE63BAB0EE22
:1004D00044CA00240027AA222146641C7E484254B4
:1004E0002146641C425406F10F00C2B22146641C2E
:1004F0007948425400222146641C42549FED770AF9
:1005000028EE000ABDEEC00A10EE100A00B20090FC
:100510009DF801202146641C6F4842549DF800203C
:100520002146641C42549FED6D0A28EE800ABDEE00
:10053000C00A10EE100A00B200909DF8012021467A
:10054000641C654842549DF800202046611CCCB2D2
:1005500061490A549FED610A29EE000ABDEEC00A06
:1005600010EE100A00B200909DF801202046611C98
:10057000CCB259490A549DF800202046611CCCB2E7
:1005800055490A549FED550A29EE800ABDEEC00A6E
:1005900010EE100A00B200909DF801202046611C68
:1005A000CCB24D490A549DF800202046611CCCB2C3
:1005B00049490A549FED490A2AEE000ABDEEC00AD5
:1005C00010EE100A00B200909DF801202046611C38
:1005D000CCB241490A549DF800202046611CCCB29F
:1005E0003D490A549FED3D0A2AEE800ABDEEC00A3D
:1005F00010EE100A00B200909DF801202046611C08
:10060000CCB235490A549DF800202046611CCCB27A
:1006100031490A549FED310A2BEE000ABDEEC00AA3
:1006200010EE100A00B200909DF801202046611CD7
:10063000CCB229490A549DF800202046611CCCB256
:1006400025490A549FED250A2BEE800ABDEEC00A0B
:1006500010EE100A00B200909DF801202046611CA7
:10066000CCB21D490A549DF800202046611CCCB232
:1006700019490A549FED190A2CEE000ABDEEC00A72
:1006800010EE100A00B200909DF801202046611C77
:10069000CCB211490A549DF800202046611CCCB20E
:1006A0000D490A54201FC870002505E00A48405D26
:1006B0003844C7B2681CC5B2A542F7DB2046611CAE
:1006C000CCB205490F542146034801F035FC01B076
:1006D000BDEC0A8BF0BD00004405002000007A4408
:1006E0007FB500240026AA222146641C54484254A7
:1006F0002146641C425403222146641C42540022B9
:100700002146641C42549DF801202146641C425439
:100710009DF800202146641C42549DF80520214686
:10072000641C42549DF804202046611CCCB244490C
:100730000A549DF809202146601CC4B24048425426
:100740009DF808202046611CCCB23D490A549DF812
:100750000D202046611CCCB239490A549DF80C206A
:100760002046611CCCB236490A549DF8212020460F
:10077000611CCCB232490A549DF820202046611CED
:10078000CCB22F490A549DF825202146601CC4B2E2
:100790002B4842549DF824202046611CCCB22849A5
:1007A0000A549DF829202046611CCCB224490A54E1
:1007B0009DF828202146601CC4B2214842549DF86F
:1007C0002D202046611CCCB21D490A549DF82C20D6
:1007D0002046611CCCB21A490A549DF831202046AB
:1007E000611CCCB216490A549DF830202046611C89
:1007F000CCB213490A549DF835202046611CCCB276
:100800000F490A549DF834202046611CCCB20C4993
:100810000A54201FC870002505E00948405D304497
:10082000C6B2681CC5B2A542F7DB2046611CCCB23B
:1008300003490E542146024801F07EFB7FBD0000B3
:10084000440500202DE9F0412DED048B82B0B0EE7F
:10085000408AF0EE608AB0EE419A05460E46174691
:10086000002400200190AA222146641C4A484254D8
:100870002146641C425401222146641C4254002239
:100880002146641C42549FED450A28EE800ABDEEC5
:10089000C00A10EE100A00B201909DF80520214612
:1008A000641C3D4842549DF804202146641C425477
:1008B0009FED3A0A28EE000ABDEEC00A10EE100ABB
:1008C00000B201909DF805202146641C3248425434
:1008D0009DF804202046611CCCB22F490A549FED9C
:1008E0002F0A29EE000ABDEEC00A10EE100A00B26F
:1008F00001909DF805202046611CCCB226490A547F
:100900009DF804202046611CCCB223490A5400956E
:100910009DF803202046611CCCB21F490A549DF863
:1009200002202046611CCCB21B490A549DF80120CC
:100930002046611CCCB218490A549DF8002020467C
:10094000611CCCB214490A542046611CCCB2124935
:100950000E542046611CCCB20F490F54201FC870A2
:100960004FF00008002006E00B49095C414401F00B
:10097000FF08411CC8B2A042F6DB2046611CCCB285
:10098000054901F800802146034801F0D5FA02B07C
:10099000BDEC048BBDE8F081440500200000C84296
:1009A00010B504466079217940EA012000EE100A72
:1009B000B8EEC00ADFED410A20EE200A404880ED83
:1009C0000F0AE079A17940EA012000EE100AB8EEA2
:1009D000C00ADFED3A0A20EE200A394880ED100AFD
:1009E000607A217A40EA012000EE100AB8EEC00ACF
:1009F000DFED320A20EE200A314880ED110AE07A5C
:100A0000A17A40EA012000EE100AB8EEC00ADFED3C
:100A10002B0A20EE200A2A4880ED000A607B217B09
:100A200040EA012000EE100AB8EEC00ADFED230A0A
:100A300020EE200A224880ED010AE07BA17B40EAFB
:100A4000012000EE100AB8EEC00ADFED1C0A20EE0D
:100A5000200A1B4880ED020A607C217C40EA0120CC
:100A600000EE100AB8EEC00ADFED140A20EE200AEC
:100A7000134880ED1E0AE07CA17C40EA012000EED4
:100A8000100AB8EEC00ADFED0D0A20EE200A0C486D
:100A900080ED1F0A607D217D40EA012000EE100AF2
:100AA000B8EEC00ADFED050A20EE200A044880ED0A
:100AB000200AA17DA078FFF7BDFC10BD6F12833A1C
:100AC000D005002010B504466079217940EA012064
:100AD00000EE100AB8EEC00ADFED410A20EE200A4F
:100AE000404880ED3C0AE079A17940EA012000EE1F
:100AF000100AB8EEC00ADFED3A0A20EE200A3948A3
:100B000080ED3D0A607A217A40EA012000EE100A69
:100B1000B8EEC00ADFED320A20EE200A314880ED3F
:100B20003E0AE07AA17A40EA012000EE100AB8EE0F
:100B3000C00ADFED2B0A20EE200A2A4880ED2D0A9C
:100B4000607B217B40EA012000EE100AB8EEC00A6B
:100B5000DFED230A20EE200A224880ED2E0AE07BFA
:100B6000A17B40EA012000EE100AB8EEC00ADFEDDA
:100B70001C0A20EE200A1B4880ED2F0A607C217C95
:100B800040EA012000EE100AB8EEC00ADFED140AB8
:100B900020EE200A134880ED4B0AE07CA17C40EA5D
:100BA000012000EE100AB8EEC00ADFED0D0A20EEBB
:100BB000200A0C4880ED4C0A607D217D40EA01202E
:100BC00000EE100AB8EEC00ADFED050A20EE200A9A
:100BD000044880ED4D0AA17DA078FFF72BFC10BDE5
:100BE0006F12833AD005002010B504466079217950
:100BF00040EA012000EE100AB8EEC00ADFED410A1B
:100C000020EE200A404880ED5A0AE079A17940EAB6
:100C1000012000EE100AB8EEC00ADFED3A0A20EE1D
:100C2000200A394880ED5B0A607A217A40EA012087
:100C300000EE100AB8EEC00ADFED320A20EE200AFC
:100C4000314880ED5C0AE07AA17A40EA012000EEAA
:100C5000100AB8EEC00ADFED2B0A20EE200A2A485F
:100C600080ED690A607B217B40EA012000EE100ADA
:100C7000B8EEC00ADFED230A20EE200A224880EDFC
:100C80006A0AE07BA17B40EA012000EE100AB8EE80
:100C9000C00ADFED1C0A20EE200A1B4880ED6B0A1B
:100CA000607C217C40EA012000EE100AB8EEC00A08
:100CB000DFED140A20EE200A134880ED780AE07C6C
:100CC000A17C40EA012000EE100AB8EEC00ADFED78
:100CD0000D0A20EE200A0C4880ED790A607D217D06
:100CE00040EA012000EE100AB8EEC00ADFED050A66
:100CF00020EE200A044880ED7A0AA17DA078FFF753
:100D000099FB10BD6F12833AD005002010B5044640
:100D1000A17DA078FFF78EFB10BD000010B5044642
:100D20006079217940EA012000EE100AB8EEC00A8D
:100D3000DFED410A20EE200A404880ED870AE07985
:100D4000A17940EA012000EE100AB8EEC00ADFEDFA
:100D50003A0A20EE200A394880ED880A607A217A22
:100D600040EA012000EE100AB8EEC00ADFED320AB8
:100D700020EE200A314880ED890AE07AA17A40EA23
:100D8000012000EE100AB8EEC00ADFED2B0A20EEBB
:100D9000200A2A4880ED960A607B217B40EA0120E8
:100DA00000EE100AB8EEC00ADFED230A20EE200A9A
:100DB000224880ED970AE07BA17B40EA012000EE0B
:100DC000100AB8EEC00ADFED1C0A20EE200A1B480C
:100DD00080ED980A607C217C40EA012000EE100A38
:100DE000B8EEC00ADFED140A20EE200A134880EDA9
:100DF000A50AE07CA17C40EA012000EE100AB8EED2
:100E0000C00ADFED0D0A20EE200A0C4880EDA60A8C
:100E1000607D217D40EA012000EE100AB8EEC00A94
:100E2000DFED050A20EE200A044880EDA70AA17D27
:100E3000A078FFF7FFFA10BD6F12833AD0050020AB
:100E400010B504466079217940EA012000EE100ACD
:100E5000B8EEC00ADFED410A20EE200A404880EDDE
:100E6000B40AE079A17940EA012000EE100AB8EE58
:100E7000C00ADFED3A0A20EE200A394880EDB50AB3
:100E8000607A217A40EA012000EE100AB8EEC00A2A
:100E9000DFED320A20EE200A314880EDB60AE07A12
:100EA000A17A40EA012000EE100AB8EEC00ADFED98
:100EB0002B0A20EE200A2A4880EDC30A607B217BA2
:100EC00040EA012000EE100AB8EEC00ADFED230A66
:100ED00020EE200A224880EDC40AE07BA17B40EA94
:100EE000012000EE100AB8EEC00ADFED1C0A20EE69
:100EF000200A1B4880EDC50A607C217C40EA012065
:100F000000EE100AB8EEC00ADFED140A20EE200A47
:100F1000134880EDD20AE07CA17C40EA012000EE7B
:100F2000100AB8EEC00ADFED0D0A20EE200A0C48C8
:100F300080EDD30A607D217D40EA012000EE100A99
:100F4000B8EEC00ADFED050A20EE200A044880ED65
:100F5000D40AA17DA078FFF76DFA10BD6F12833A15
:100F6000D005002010B54048007801287BD13F48CB
:100F70000078222874D13D48407A232870D100207F
:100F800005E03A4A411C525C39490A54401C082881
:100F9000F7DB3649097A663901EB81014FF4FA72C1
:100FA000C2EB4100514202F041F931490939C88090
:100FB0002E49C979663901EB81014FF4FA72C2EB0F
:100FC0004100514202F032F9294909394880274944
:100FD0008979663901EB810148004FF47A7200216A
:100FE00002F024F9224909390880204949796639F3
:100FF00001EB81014FF4FA72C2EB4100514202F061
:1010000015F91B49093988800846B0F900001428F1
:1010100026DA0846B0F9020010F5E17F0BDA08463F
:10102000B0F90400B0F5E17F05DD01201149086049
:101030000F49093948750E480938B0F9020010F512
:10104000E17F0DDA0A480938B0F9040010F5E17FB4
:1010500006DA00200749086001200549093948756A
:1010600000200149087010BD1201002098050020E1
:10107000C10500202000002000BFFEE7212821D06C
:101080000CDC042818D004DC012810D0022831D14F
:101090000EE0052814D020282CD112E0A0F1220166
:1010A000052927D2DFE801F012161A1E220021E0DE
:1010B0000121114A91701DE00121104A117019E0BF
:1010C00018E017E001210E4A517013E004210C4A88
:1010D00051700FE002210A4A51700BE00321084AC7
:1010E000517007E00521064A517003E00621044AC9
:1010F000517000BF00BF7047B4040020D00400202E
:10110000CC03002010B50446012C02D0022C7DD166
:10111000EEE07948D0ED204AB0EE644AD0ED1F4AA7
:10112000F0EE643AD0ED1E4AB0EE643AD0ED024AD9
:10113000F0EE642AD0ED014AB0EE642AD0ED004A08
:10114000F0EE641AD0ED114AB0EE641AD0ED104AF8
:10115000F0EE640AD0ED0F4AB0EE640A0120FFF70A
:10116000A1F9052004F014FE6348D0ED4D4AB0EE1D
:10117000644AD0ED4C4AF0EE643AD0ED4B4AB0EE02
:10118000643AD0ED2F4AF0EE642AD0ED2E4AB0EE4C
:10119000642AD0ED2D4AF0EE641AD0ED3E4AB0EE4E
:1011A000641AD0ED3D4AF0EE640AD0ED3C4AB0EE50
:1011B000640A0220FFF776F9052004F0E9FD4E48A5
:1011C000D0ED7A4AB0EE644AD0ED794AF0EE643A56
:1011D000D0ED784AB0EE643AD0ED6B4AF0EE642A76
:1011E000D0ED6A4AB0EE642AD0ED694AF0EE641A96
:1011F000D0ED5C4AB0EE641AD0ED5B4AF0EE640AC2
:10120000D0ED5A4AB0EE640A032000E071E0FFF727
:1012100049F9052004F0BCFD9FED384ADFED373A6F
:101220009FED363ADFED352A9FED342ADFED331A94
:101230009FED321ADFED310A9FED300A0420FFF7EF
:1012400031F9052004F0A4FD2B48D0EDA74AB0EEFB
:10125000644AD0EDA64AF0EE643AD0EDA54AB0EE6D
:10126000643AD0ED984AF0EE642AD0ED974AB0EE99
:10127000642AD0ED964AF0EE641AD0ED894AB0EEB9
:10128000641AD0ED884AF0EE640AD0ED874AB0EED9
:10129000640A0520FFF706F9052004F079FD1648D9
:1012A000D0EDD44AB0EE644AD0EDD34AF0EE643AC1
:1012B000D0EDD24AB0EE643AD0EDC54AF0EE642AE1
:1012C000D0EDC44AB0EE642AD0EDC34AF0EE641A01
:1012D000D0EDB64AB0EE641AD0EDB54AF0EE640A2D
:1012E000D0EDB44AB0EE640A0620FFF7DBF800E068
:1012F00000BF00BF10BD0000D005002000000000AE
:1013000070B503460C46154600204DE0461C31B230
:1013100046E000EB400604EBC60606EB8106D6ED80
:10132000000A00EB400604EBC60606EB800696EDCD
:10133000001A80EE810AB5EEC00AF1EE10FA2DD047
:1013400003EB8106D6ED000A03EB800696ED001A4A
:1013500040EE410A03EB8106C6ED000A0A461BE097
:1013600002EB420604EBC60606EB8106D6ED000A48
:1013700002EB420604EBC60606EB800696ED001A69
:1013800040EE410A02EB420604EBC60606EB81067C
:10139000C6ED000A561C32B2062AE1DB4E1C31B201
:1013A0000629B6DB461C30B20628AFDB052045E037
:1013B00000EB400604EBC60606EB8006D6ED000AFD
:1013C00003EB800696ED001AC1EE201A03EB8006AF
:1013D000C6ED001AF7EE000A00EB400604EBC60665
:1013E00006EB8006C6ED000A002123E000EB400674
:1013F00004EBC60606EB8106D6ED000AB0EE600AE5
:1014000003EB8106D6ED000A03EB800696ED001A89
:1014100040EE410A03EB8106C6ED000ADFED100A3B
:1014200000EB400604EBC60606EB8106C6ED000A9B
:101430004E1C31B28142D9DB461E30B20028B7DAE9
:10144000002009E003EB8006D6ED000A05EB8006DC
:10145000C6ED000A461C30B20628F3DB70BD000062
:101460000000000010B502460B46002017E09FED7B
:101470000D0A02EB800484ED000A00210BE09FEDD1
:10148000090A00EB400403EBC40404EB810484ED7F
:10149000000A4C1C21B20629F1DB441C20B20628AC
:1014A000E5DB10BD00000000F0B586B004460D4637
:1014B000F7EE001AB0EE611A002035E0C61C02EB10
:1014C0008606D6ED000A03EB8006D6ED001A02EB85
:1014D000800696ED002A31EEC20A60EEA01A21EED7
:1014E000802AF0EE411A42EE401AB0EE611AF0EE98
:1014F000001A60EEA11A61EEA01A61EE801A6E4623
:1015000006EB8006C6ED001AF8EE001A60EEA11A8E
:1015100061EE801A61EE801AC61C6F4607EB8606E4
:10152000C6ED001A461C30B20328C7DB002032E0AB
:1015300004EB8006D6ED001A6E4606EB800696EDAB
:10154000002A42EE011A04EB8006C6ED001A0021C3
:101550001DE000EB400605EBC60606EB8106D6ED66
:10156000001A6E4606EB800696ED002A6E4606EBE4
:101570008106D6ED002A42EE221A00EB400605EB6A
:10158000C60606EB8106C6ED001A4E1C31B20629CE
:10159000DFDB461C30B20628CADB06B0F0BD000017
:1015A0002DE9F0432DED028BB9B007460E461446E7
:1015B0004FF000089FED9F0AB0EE408A9FED9E0A13
:1015C000F0EE408A0020369037903890182130A8ED
:1015D000FEF76BFE18212AA8FEF767FE182124A843
:1015E000FEF763FE90216846FEF75FFE4FF00109AB
:1015F0009FED920A8DED320A8DED310A8DED300AA4
:101600009FED8F0A8DED350A8DED340A8DED330A8D
:101610007FE008F101000FFA80F8694624A8FFF77F
:1016200021FF00251FE005EB450007EB800090ED52
:10163000000A8DED360A05EB450007EB800090EDC2
:10164000010A8DED370A05EB450007EB800090EDB0
:10165000020A8DED380A36AB30AA694624A8FFF796
:1016600023FF681C05B2062DDDDB2AAA694624A8E3
:10167000FFF746FE9DED2D0A20EE000ADDED330A50
:1016800020EEA01AC0EE010A9DED2A0A20EE000A03
:1016900030EE000A9DED2B1ADDED2B1A01EE210A2A
:1016A0009DED2C1ADDED2C1A01EE210A30EE800A98
:1016B000DDED2E0A60EEA00A9DED341A21EE011A2E
:1016C000C0EE811A70EE210A9DED2F0A20EE000A6D
:1016D0009DED351A21EE011AC0EE011A30EEA10A75
:1016E000F0EE408A002512E030A800EB850090ED76
:1016F000000A2AA800EB8500D0ED000A30EE600A4F
:1017000030A800EB850080ED000A681C05B2062DAC
:10171000EADBB8F1140F05DAF4EEC88AF1EE10FA3C
:101720003FF777AF9DED330ADFED460A20EE200A42
:1017300084ED000A9DED340ADFED420A20EE200A16
:1017400084ED010A9DED350ADFED3E0A20EE200A08
:1017500084ED020A9DED300AD4ED000A20EE200A45
:1017600086ED000A9DED310AD4ED010A20EE200A33
:1017700086ED010A9DED320AD4ED020A20EE200A20
:1017800086ED020A94ED000AF7EE000A30EE600AD8
:10179000B0EEC00ADFED2C0AB4EEE00AF1EE10FA6A
:1017A0001DDC94ED010AF7EE000A30EE600AB0EE9F
:1017B000C00ADFED250AB4EEE00AF1EE10FA0EDC05
:1017C00094ED020AF7EE000A30EE600AB0EEC00AAD
:1017D000DFED1D0AB4EEE00AF1EE10FA01DD4FF084
:1017E000000996ED000AB0EEC00AF0EE0C0AB4EE65
:1017F000E00AF1EE10FA15DC96ED010AB0EEC00A2F
:10180000F0EE0C0AB4EEE00AF1EE10FA0ADC96ED06
:10181000020AB0EEC00AF0EE0C0AB4EEE00AF1EEF5
:1018200010FA01DD4FF00009484639B0BDEC028BDB
:10183000BDE8F0835F7089300000C84200000000FE
:101840007FD6D03D0AE81C41CDCC4C3E0C48B0F9C7
:10185000020000EE100AB8EEC00A0A4880ED030A42
:101860000748B0F9040000EE100AB8EEC00A0548B7
:1018700080ED120A02480088034908807047000082
:10188000B8050020D00500204402002010B504480F
:1018900005F016FB04F03EF904F07CFC10BD0000DE
:1018A000540900202DE9F0410024002500260027DE
:1018B0007148006801287DD17048B0F900001428F3
:1018C0007FDD6F48008800EE100AB8EE400A6D48D0
:1018D000D0ED3A0A30EE200AD0ED490A30EE600A27
:1018E000D0ED580A30EE200ABCEEC00A10EE100A05
:1018F00084B26348008800EE100AB8EE400A6148DE
:10190000D0ED3A0A30EE600AD0ED490A30EE600AB6
:10191000D0ED580A30EE600ABCEEC00A10EE100A94
:1019200085B25748008800EE100AB8EE400A5548C4
:10193000D0ED3A0A30EE600AD0ED490A30EE200AC6
:10194000D0ED580A30EE200ABCEEC00A10EE100AA4
:1019500086B24B48008800EE100AB8EE400A4948AB
:10196000D0ED3A0A30EE200AD0ED490A30EE200AD6
:10197000D0ED580A30EE600ABCEEC00A10EE100A34
:1019800087B240F25232C82120B201F04FFC84B23B
:1019900040F25232C82128B201F048FC85B240F230
:1019A0005232C82130B201F041FC86B240F25232CC
:1019B000C82101E038E004E038B201F037FC87B21A
:1019C00021E02E48008884B22C48008885B22B483C
:1019D000008886B22948008887B22A4804F050F966
:1019E0002848B43004F04CF926483C3004F048F95B
:1019F0002448F03004F044F92248783004F040F9EB
:101A0000214804F03DF92146012004F00BFF29464E
:101A1000022004F007FF3146032004F003FF39469B
:101A2000042004F0FFFE25E00021012004F0FAFE6E
:101A30000021022004F0F6FE0021032004F0F2FE53
:101A40000021042004F0EEFE0E4804F019F90E48BF
:101A5000783804F015F90B483C3004F011F90A48C5
:101A60003C3804F00DF90748783004F009F90648CD
:101A700004F006F9BDE8F08120000020B805002040
:101A800044020020D0050020FC06002010B50949C2
:101A9000094800F07BF958B10021074800F08EF8A2
:101AA0000449054800F070F80121034800F086F869
:101AB00010BD0000008020104060024010B50549B4
:101AC000054800F063F918B10249034800F05CF8DA
:101AD00010BD0000208000207060024010B5064953
:101AE000064800F031F9012805D10549087102497D
:101AF000024800F02FF810BD208000101064024052
:101B00008802002010B50949094800F03FF958B192
:101B10000021074800F052F80449054800F034F865
:101B20000121034800F04AF810BD00000080201099
:101B30004064024010B50549054800F027F918B186
:101B40000249034800F020F810BD00000080002882
:101B5000B86402400246094B9A4201D2084801E0AB
:101B60000648103801F000531BB1064B0B40C36010
:101B700002E0044B0B408360704700001064024099
:101B8000006002407D0F7D0F0246094B9A4201D250
:101B9000084801E00648103801F000531BB1064B1D
:101BA0000B40C36002E0044B0B40836070470000B1
:101BB00010640240006002407D0F7D0F21B1026879
:101BC00042F00102026003E0026822F001020260BA
:101BD00070470000016821F00101016000210160EF
:101BE00041608160C1600161212141614A498842AF
:101BF00004D13D21484A103A91608CE046491831A1
:101C0000884205D14FF47461434A103A916082E0F2
:101C100041493031884205D14FF474113E4A103A9F
:101C2000916078E03C494831884205D14FF07461B9
:101C3000394A103A91606EE037496031884204D1E8
:101C40003649354A103AD16065E0334978318842E7
:101C500004D13349304A103AD1605CE02E499031CA
:101C6000884204D12F492C4A103AD16053E02A49C6
:101C7000A831884205D14FF03D51274A103AD16032
:101C800049E02949884204D13D21274A083A116098
:101C900041E025491831884205D14FF47461224A48
:101CA000083A116037E020493031884205D14FF4BD
:101CB00074111D4A083A11602DE01B4948318842D1
:101CC00005D14FF07461184A083A116023E01649B3
:101CD0006031884204D11149134A121F11601AE081
:101CE00011497831884204D10D490F4A121F116001
:101CF00011E00D499031884204D10A490A4A121F65
:101D0000116008E00849A831884204D14FF03D51E4
:101D1000054A121F11607047106002403D0000200C
:101D2000400F002000003D201064024001460020CA
:101D30000A6802F001020AB1012000E000207047A9
:101D40000146486880B2704730B503460A46002015
:101D500000240B4DAB4201D20A4901E00849103979
:101D600002F000550DB14C6800E00C68064D2C40A7
:101D700004EA02050DB1012000E0002030BD0000A2
:101D800010640240006002407D0F7D0F70B5024676
:101D9000002000240025124EB24201D2114B01E076
:101DA0000F4B103B104E0E4036B11E2606EAD124D2
:101DB000166806EA040502E0566906F0800501F09F
:101DC00000560EB15C6800E01C68084E344004EA1E
:101DD000010616B10DB1012000E0002070BD000029
:101DE00010640240006002403C0F3C0F7D0F7D0FED
:101DF00010B501F080034BB122B1436943F0800379
:101E0000436103E0436923F08003436180290BD0E1
:101E10002AB1036801F01E042343036004E0036851
:101E200001F01E04A343036010BD000010B50022A2
:101E30000268134B1A40CC680B6823434C69234358
:101E40008C692343CC6923430C6A23434C6A2343A4
:101E50008C6A23434C6B23438C6B23431A430260ED
:101E6000426922F00702D1E90B3423431A4342614D
:101E70000B6943604B6883608B68C36010BD0000D2
:101E80003F801CF008B53A208DF8000001208DF845
:101E9000030002208DF801008DF80200684601F071
:101EA000B1FB08BD08B50D208DF8000001208DF8AC
:101EB000030002208DF8010001208DF80200684621
:101EC00001F0A0FB08BD70B504460D460021204678
:101ED000FFF774FE00BF2046FFF728FF0028FAD165
:101EE0002946204600F005F801212046FFF766FE4E
:101EF00070BD4160704708B546208DF80000012094
:101F00008DF8030002208DF801008DF8020068466C
:101F100001F078FB08BD08B50F208DF80000012006
:101F20008DF8030002208DF8010001208DF80200D9
:101F3000684601F067FB08BD70B504460E460025F3
:101F400005E0207805494855641C681CC5B2B542B7
:101F5000F7DB31460248FFF7B6FF70BD04050020ED
:101F6000B86402401FB504460121C80401F0FAFB21
:101F700000940020ADF80C000C20ADF80A00002001
:101F8000ADF80800ADF80600ADF804006946174842
:101F900002F0B2FE02F0DAFD02F00CFE012240F285
:101FA0002441124802F083FE0121104802F040FE55
:101FB00002F068FD02F0ECFCFFF774FFFFF7ABFFE7
:101FC000012210210A48FFF713FF012210210848BF
:101FD0003030FFF70DFF01224021044802F034FEAB
:101FE00001228021014802F02FFE1FBD004C00405D
:101FF000406002401FB504460121102001F0D2FBD1
:1020000000940020ADF80C000C20ADF80A00002070
:10201000ADF80800ADF80600ADF8040069461748B1
:1020200002F06AFE02F06CFD02F0B4FD012240F203
:102030002441124802F03BFE0121104802F0F8FD55
:1020400002F0E2FC02F068FCFFF71CFFFFF753FF11
:10205000012210210A48FFF7CBFE01221021084877
:102060007830FFF7C5FE01224021044802F0ECFD64
:1020700001228021014802F0E7FD1FBD0010014050
:10208000406402407047000030B10749096841F4DC
:102090008061054A116005E00349096821F4806107
:1020A000014A116070470000003C024070B50446D0
:1020B0000A460026092502B909E0012A01D11602C3
:1020C00005E0022A01D1160201E04FF4407600F04B
:1020D0009FF80546092D28D11548006820F4407066
:1020E00013490860084600683043086008460068E5
:1020F00020F0F80008600846006844F00201084338
:102100000B4908600846006840F48030086000F021
:102110007FF805460648006820F002000449086080
:102120000846006820F0F8000860284670BD0000EE
:10213000103C024009201349096801F48031B1F5CF
:10214000803F01D101201CE00E49096801F0100117
:1021500009B1062015E00B49096801F4807109B145
:1021600002200EE00749096801F0EF0109B10720DC
:1021700007E00449096801F0020109B1082000E004
:10218000092070470C3C02400348006840F00040C2
:102190000149086070470000103C024030B502461B
:1021A0000C46092500F034F80546092D19D10E48D2
:1021B000006820F440700C4908600846006840F44C
:1021C000007008600846006840F001000860146074
:1021D00000F01EF805460448006820F0010002499E
:1021E0000860284630BD0000103C024005480068E9
:1021F00000F0004028B1044802490C390860034847
:1022000008607047103C024023016745AB89EFCD61
:1022100008B509200090FFF78DFF009002E0FFF75E
:1022200089FF00909DF800000128F8D09DF800007B
:1022300008BD000030B58FB00025002010E0B7EEDB
:10224000000A764901EB800181ED000A9FED740AD6
:1022500072490C3901EB800181ED000A411CC8B2C2
:102260000328ECDB00240BE06E49042202FB04107F
:1022700000F0E0F8684600EB840080ED000A641C82
:102280000F2CF1DB9DED000A6448943880ED1C0AA8
:102290009DED010A80ED1D0A9DED020A80ED1E0AEA
:1022A0009DED030A80ED1F0A9DED040A80ED200AD2
:1022B0009DED050A80ED210A9DED060A5A4880ED44
:1022C000040A9DED070A80ED050A9DED080A80EDE0
:1022D000060A9DED090A554880ED070A9DED0A0A98
:1022E00080ED080A9DED0B0A80ED090A9DED0C0AB0
:1022F000BDEEC00A80ED0A0A9DED0D0A80ED0B0AC5
:102300009DED0E0A80ED0C0A44489438D0ED1C0A6D
:10231000B0EE600A04F0E0FBF1EE040AB4EEE00A6D
:10232000F1EE10FA1DDC3D489438D0ED1D0AB0EEF8
:10233000600A04F0D1FBF1EE040AB4EEE00AF1EE1B
:1023400010FA0EDC35489438D0ED1E0AB0EE600A63
:1023500004F0C2FBF1EE040AB4EEE00AF1EE10FA6A
:1023600000DD01252D489438D0ED1F0AB7EE001A84
:1023700070EEC10AB0EE600A04F0AEFBF6EE000AA1
:10238000B4EEE00AF1EE10FA25DC24489438D0EDE2
:10239000200AB7EE001A70EEC10AB0EE600A04F02F
:1023A0009BFBF6EE000AB4EEE00AF1EE10FA12DC46
:1023B0001A489438D0ED210AB7EE001A70EEC10A1F
:1023C000B0EE600A04F088FBF6EE000AB4EEE00A14
:1023D000F1EE10FA00DD0225CDB91048943890EDE9
:1023E0001C0A80ED220A90ED1D0A80ED230A90ED73
:1023F0001E0A80ED240A90ED1F0A80ED250A90ED5B
:10240000200A80ED260A90ED210A80ED270A07496F
:102410001C31074803F0B8F90FB030BD600400204C
:102420000000000000C00008B4040020D004002018
:102430001C03002008B50246104601F067FB00901F
:102440009DED000A08BD000010B590B03C2101A828
:10245000FDF72BFF174890ED1C0A8DED010A90ED5A
:102460001D0A8DED020A90ED1E0A8DED030A90ED16
:102470001F0A8DED040A90ED200A8DED050A90EDFE
:10248000210A8DED060A06240BE00B49042202FB0B
:102490000410FFF7CFFF01A800EB840080ED000AD5
:1024A000641C0F2CF1DB0F2201A9034801F032FB61
:1024B00010B010BDCC03002000C0000810B590B0D3
:1024C0003C2101A8FDF7F1FE00240BE0184904228D
:1024D00002FB0410FFF7AEFF01A800EB840080EDC3
:1024E000000A641C062CF1DB124890ED040A8DED05
:1024F000070A90ED050A8DED080A90ED060A8DEDAC
:10250000090A09240BE00A49042202FB0410FFF720
:1025100091FF01A800EB840080ED000A641C0F2CE1
:10252000F1DB0F2201A9024801F0F4FA10B010BD4E
:1025300000C00008B404002010B590B03C2101A8F0
:10254000FDF7B3FE00240BE01749042202FB041040
:10255000FFF770FF01A800EB840080ED000A641C07
:10256000092CF1DB114890ED070A8DED0A0A90ED78
:10257000080A8DED0B0A90ED090A8DED0C0A90ED1D
:102580000A0AB8EEC00A8DED0D0A90ED0B0A8DED2A
:102590000E0A90ED0C0A8DED0F0A0F2201A90248D8
:1025A00001F0B8FA10B010BD00C00008D00400203F
:1025B0002948006840F48070274908602648203880
:1025C000006840F48070244920390860084600689B
:1025D00020F4807008602148006820F440302049D1
:1025E000C1F804030846D0F8040340F480301B49C6
:1025F000086000201A4948600846406840F480702E
:102600004860002088600846806840F480708860D8
:102610000846806840F4007088600846806840F092
:10262000020088600846C06A40F48010C86208460C
:10263000406B40F0020048630846406B40F0800069
:1026400048630846806840F001008860084680685A
:1026500040F08040886070474438024004230140C5
:10266000002001402DE9F0430C461546DDE90767DF
:10267000DFF890C160450BD96146DFF88CC1DCF80A
:1026800000C04CF4800CDFF88081C8F800C00AE07C
:102690005E49DFF874C1DCF800C04CF4001CDFF8C0
:1026A0006881C8F800C000BFD0F800C00CF0010C71
:1026B000BCF1000FF8D1A0EB010CACF1100C4FF005
:1026C0001808BCFBF8FC0CF0FF02062A12DBD1F85C
:1026D0000CC0A2F1060808EB48084FEA480808F1C8
:1026E00010084FF03D0909FA08F94CEA090CC1F845
:1026F0000CC035E0042A10DBD1F80CC0A2F10408AC
:1027000008EB48084FEA48094FF03D0808FA09F875
:102710004CEA080CC1F80CC022E0022A12DBD1F806
:1027200008C0A2F1020808EB48084FEA480808F17F
:1027300010084FF03D0909FA08F94CEA090CC1F8F4
:1027400008C00DE0D1F808C002EB42084FEA480982
:102750004FF03D0808FA09F84CEA080CC1F808C027
:102760008560C36046604FF0000CC0F800C0D0F830
:1027700000C02CF0C00CC0F800C0D0F800C04CEA7B
:10278000871CC0F800C0D0F800C04CF0100CC0F896
:1027900000C0D0F800C04CF4807CC0F800C0D0F875
:1027A00000C0C0F800C0D0F800C04CF4806CC0F885
:1027B00000C0D0F800C04CF4006CC0F800C0D0F8E5
:1027C00000C04CF4005CC0F800C0D0F800C04CF46D
:1027D000803CC0F800C0D0F800C0C0F800C0D0F8FD
:1027E00000C0C0F800C0D0F800C04CEA446CC0F88B
:1027F00000C0D0F800C04CF0010CC0F800C0BDE82B
:10280000F083000000640240303802400060024063
:102810001CB50848006840F0010006490860022025
:1028200000210B460322CDE900101421024800F0DC
:102830008EF81CBD30380240000002401CB5042355
:1028400038220321084600F089FEFFF7E1FFFFF779
:10285000AFFE00200221044B044ACDE900100146DE
:102860000348FFF7FFFE1CBD880200204C200140FA
:1028700010640240F0B50A4600210023002400BF86
:102880003DE0012505FA01F3156805EA03049C42C1
:1028900034D105684F000326BE40B5430560157965
:1028A0004E00B5400668354305601579012D02D00C
:1028B0001579022D16D185684F000326BE40B54319
:1028C000856055794E00B54086683543856045681A
:1028D00001268E40B5434560456896798E40B6B274
:1028E00035434560C5684F000326BE40B543C5600B
:1028F000D5794E00B540C6683543C560491C1029DE
:10290000BFD3F0BDF0B5002300244D07ED0E02FA51
:1029100005F3CE1000F1200555F826504E07F70EAE
:102920000F26BE40B543CF1000F1200646F82750D1
:10293000CE1000F1200555F8265045EA0304CE10CC
:1029400000F1200545F82640F0BD418370472DE990
:10295000F0470C46DDE90867002100258C4600BFE2
:1029600060E04FF0010808FA01F504EA050CAC45F7
:1029700057D1D0F800804FEA410A4FF0030909FA15
:102980000AF928EA0908C0F80080D0F800804FEA68
:10299000410902FA09F948EA0908C0F80080012A49
:1029A00001D0022A27D1D0F808804FEA410A4FF01F
:1029B000030909FA0AF928EA0908C0F80880D0F8DA
:1029C00008804FEA410906FA09F948EA0908C0F8FF
:1029D0000880D0F804904FF0010808FA01F829EABD
:1029E0000809C0F80490D0F8048003FA01F948EA15
:1029F0000908C0F80480D0F80C804FEA410A4FF073
:102A0000030909FA0AF928EA0908C0F80C80D0F885
:102A10000C804FEA410907FA09F948EA0908C0F8A9
:102A20000C80491C10299CD3BDE8F08701837047B6
:102A300000BFFEE770B50446002503F0D3FC1A2062
:102A400003F09CFC03F01AFD204603F097FC03F012
:102A500015FD03F0C7FC1B2003F090FC03F00EFDF6
:102A6000002003F055FC054603F0E2FC284670BD4B
:102A700070B505460C4603F0B5FC1A2003F07EFC49
:102A800003F0FCFC18B103F0D3FC012070BD284614
:102A900003F074FC03F0F2FC204603F06FFC03F03B
:102AA000EDFC18B103F0C4FC0120EFE703F0C0FC1B
:102AB0000020EBE72DE9F0412DED108B06460C468A
:102AC00015461F4694ED000AD4ED010A20EE200AB7
:102AD000D4ED020A20EE200AB5EEC00AF1EE10FA9B
:102AE00003D1BDEC108BBDE8F08197ED000AD7ED66
:102AF000010A20EE200AD7ED020A20EE200AB5EEE8
:102B0000C00AF1EE10FA00D1EBE7FE4804F0D8F964
:102B1000D4ED000A60EEA00A94ED011AD4ED011A7A
:102B200041EE210A94ED021AD4ED021A41EE210A77
:102B3000B0EE600A03F0D2FCB0EE408A94ED000AD9
:102B400020EE080A84ED000A94ED010A20EE080A3E
:102B500084ED010A94ED020A20EE080A84ED020ACF
:102B6000E94890ED000AE948D0ED000A20EE200A7D
:102B7000E748D0ED000AE74890ED001A00EEC10AE0
:102B8000F0EE000A60EE208A90ED000ADF48D0EDFA
:102B9000000A20EE200ADE48D0ED000ADA4890ED67
:102BA000001A00EE810AF0EE000A20EE209A90ED65
:102BB000000AF0EE000A60EE200A90ED001AB7EE6F
:102BC000000A00EEC10AD348D0ED000AB0EE001AA8
:102BD00060EE810A90ED001AF0EE409A40EEC19A44
:102BE00094ED010A20EE290AD4ED020AB0EE40AAC3
:102BF00000EEC9AA94ED020A20EE280AD4ED000ADC
:102C0000F0EE40AA40EEE9AA94ED000A20EE090A8F
:102C1000D4ED010AB0EE40DA00EEE8DA9FEDBE0A2C
:102C20006AEE000AB74890ED041ABC4890ED000A1D
:102C300000EE810A80ED000A9FEDB70A6AEE800A75
:102C4000B04890ED041AB64890ED000A00EE810AF3
:102C500080ED000A9FEDB00A6DEE000AA94890EDE4
:102C6000041AB04890ED000A00EE810A80ED000AD7
:102C700095ED000AF2EE020A00EE8A0AA748D0EDAE
:102C8000000A30EE200A85ED000A95ED010AF2EE09
:102C9000020A00EEAA0AA248D0ED000A30EE200A8D
:102CA00085ED010A95ED020AF2EE020A00EE8D0AA8
:102CB0009C48D0ED000A30EE200A85ED020A95ED21
:102CC000000A9148D0ED000AF1EE600A20EE200AD9
:102CD000D5ED010A8F4890ED001A01EE600AD5ED9E
:102CE000020A8A4890ED001A01EE600A8548D0ED8C
:102CF000040A60EE200A864890ED000AB6EE001A3B
:102D000000EE810A80ED000A95ED000AD0ED000A80
:102D100020EE200AD5ED020A7E4890ED001A01EE61
:102D2000200AD5ED010A794890ED001A01EE600AFB
:102D30007448D0ED040A60EE200A734890ED000A52
:102D4000B6EE001A00EE810A80ED000A95ED010A48
:102D50006F48D0ED000A20EE200AD5ED020A6A483D
:102D600090ED001A01EE600AD5ED000A674890ED7B
:102D7000001A01EE200A6348D0ED040A60EE200A32
:102D8000644890ED000AB6EE001A00EE810A80ED6C
:102D9000000A95ED020A5E48D0ED000A20EE200AF6
:102DA000D5ED010A584890ED001A01EE200AD5ED44
:102DB000000A584890ED001A01EE600A5148D0ED23
:102DC000040A60EE200A514890ED000AB6EE001A9F
:102DD00000EE810A80ED000A4D48D0ED000A60EE59
:102DE000A00A494890ED001AD0ED001A41EE210AE0
:102DF000484890ED001AD0ED001A41EE210A4348F0
:102E000090ED001AD0ED001A41EE210AB0EE600AF2
:102E100003F064FBB0EE408A3D4890ED000A20EEDE
:102E2000080A80ED000A384890ED000A20EE080AF2
:102E300080ED000A374890ED000A20EE080A80ED88
:102E4000000A324890ED000A20EE080A80ED000AE0
:102E50002F4890ED000A20EE000A2B48D0ED000A22
:102E600090ED001A00EEC10A2A48D0ED000A90ED5C
:102E7000001A00EEC10A2548D0ED000A90ED001AB4
:102E800000EE810A10EE101A084604F0DBFD41EC5A
:102E90001E0B1F4890ED000A1B48D0ED000A20EEE3
:102EA000200A1C48D0ED000A184890ED001A00EEE8
:102EB000810AF0EE000A20EE200A10EE101A0846F1
:102EC00004F0C0FD41EC1C0BB0EE4E1AF0EE6E1A91
:102ED000B0EE4C0AF0EE6C0A02F0AEFAB0EE40BA78
:102EE000F0EE60BA9FED100B53EC102B51EC1B0B66
:102EF00004F0E8FA41EC1F0B04F020F830600448BD
:102F000016E00000740200209C000020A4000020B5
:102F100098000020A00000206F12033CA8000020B1
:102F2000AC000020B000002000000020DCA54C40D8
:102F300090ED000A1E48D0ED000A20EE200A1D4840
:102F4000D0ED000A1C4890ED001A00EEC10AF0EE28
:102F5000000A20EE200A10EE101A084604F072FD56
:102F600041EC1C0BB0EE4C0AF0EE6C0A01F048FF8D
:102F7000B0EE40BAF0EE60BA1FED150B53EC102B1B
:102F800051EC1B0B04F09EFA41EC1E0B03F0D6FF34
:102F9000706096ED020A0948D0ED110A084890EDDC
:102FA000041A00EE810A86ED020A00BF99E50000CE
:102FB000A00000209C000020A400002004030020AA
:102FC000740200201CB50121042000F0BBFB4F203F
:102FD000009001208DF8040000208DF806000320E9
:102FE0008DF8050001208DF8070069460348FFF7BA
:102FF00041FC4F210148FFF719FD1CBD00080240AC
:1030000010B52748407820B100221421052000F097
:103010004FF823480078012808D104221421052004
:1030200000F046F810B100201D4908701D48807856
:10303000012804D100221421052000F039F8194894
:10304000C078012808D104221421052000F030F8AE
:1030500010B100201349C87013480078012804D12A
:1030600000221421052000F023F80F4840780128A1
:1030700008D104221421052000F01AF810B1002014
:10308000094948700948407D012808D107221421C8
:10309000052000F00DF810B100200449487510BD5E
:1030A000CC030020B4040020D0040020B805002088
:1030B00030B503460020594C2468641C574D2C60E1
:1030C0002C4624689C4270DD00242C60082A6DD2B6
:1030D000DFE802F0040D18232E41566D504C246891
:1030E0000CB9012400E000244D4D2C6087E04C4CCD
:1030F000241F24680CB9012400E00024484D2D1F32
:103100002C607CE0464C083424680CB9012400E0B3
:103110000024434D08352C6071E0414C241D246887
:103120000CB9012400E000243D4D2D1D2C6066E00B
:103130003B4C24680CB9012400E00024384D2C607D
:10314000384CD4F880420CB9012400E00024344DFE
:103150002D1F2C6053E0324C241F24680CB901242D
:1031600000E000242E4D2D1F2C602E4CD4F88C42F4
:103170000CB9012400E00024294D08352C603EE004
:10318000274C083424680CB9012400E00024244DA5
:1031900008352C60234CD4F888420CB9012400E097
:1031A00000241F4D2D1D2C6029E035E026E01C4C2D
:1031B00024680CB9012400E00024194D2C60194C3E
:1031C000D4F880420CB9012400E00024144D2D1FD6
:1031D0002C60144CD4F88C420CB9012400E000247B
:1031E0000F4D08352C600F4CD4F888420CB90124DF
:1031F00000E000240A4D2D1D2C6000E000BF00BF40
:10320000094C2468641C084D2C602C4624688C42B0
:1032100002DD00242C60012030BD000014000020DD
:1032200084024142000041421800002003468B42C4
:1032300001DA08467047934201DD1046FAE700BF05
:10324000F8E72DE9FC4104460D46164600276B467B
:10325000062200210D2000F03BFA0746BFB19DF881
:1032600000009DF8011040EA012000B220809DF886
:1032700002009DF8031040EA012000B228809DF86A
:1032800004009DF8051040EA012000B2308017B11B
:103290000120BDE8FC810020FBE710B503F0A2F897
:1032A000EE2003F06BF803F0E9F81E2003F066F857
:1032B00003F0E4F803F0BCF810BD38B50446002074
:1032C000009003F08FF8EE2003F058F803F0D6F8E2
:1032D000204603F053F803F0D1F803F0A9F80A20D0
:1032E00002F056FD03F07EF8EE2003F047F803F0FD
:1032F000C5F8002003F042F803F0C0F803F098F896
:1033000003F070F8EF2003F039F803F0B7F801206C
:1033100002F0FEFF8DF80000012002F0F9FF8DF8A9
:103320000100002002F0F4FF8DF8020003F080F8A5
:103330009DF8000000049DF8011040EA01209DF86E
:103340000210084338BD00002DE9F0472DED088B31
:1033500081460C4600BF00BF4820FFF7AEFF57492B
:10336000086057488088010455480089554A12680A
:10337000504301EBE010C117534A03C25048408844
:10338000C1034F48C0884F4A1268504301EB2020C8
:10339000C1174E4A03C22068B0F5FA6F6DDA206893
:1033A000A0F5FA6000FB00F74FEAE77845480068AF
:1033B0004043C017C117464A03C23846414604F08D
:1033C0001DF89FED440B53EC102B04F07BF803F039
:1033D000E7FF424908603846414604F00FF89FED88
:1033E000400B53EC102B04F06DF803F0D9FF3E496D
:1033F00008603E492068884225DA206800F2DC50E7
:1034000000FB00F5EE170720A5FB0010334800680D
:103410000818324908603146284603F0EFFF9FED57
:10342000340B53EC102B04F04DF841EC190B2E48E3
:10343000006804F034F853EC192B03F0B1FD03F0ED
:10344000AFFF29490860224920680968401A2060B6
:103450001D48D0E9003121480068181A61F10001C7
:10346000194A03C21948D0E900301F490968591A9E
:1034700060F10000154AC2E90010104800680022FF
:10348000124BD3E900C3A0FB0C1A02FB0CA200FBF9
:103490000322480D40EAC2204FEA625C0A4A0ACA87
:1034A0000246511A6CEB0300420442EAD130C9F8DB
:1034B0000000BDEC088BBDE8F0870000C0000020D4
:1034C000A4020020BC000020C8000020D000002082
:1034D000D80000200000000000000440E0000020B0
:1034E000000000000000F43FE400002024FAFFFF89
:1034F000000000000000164010B504465820FFF7F9
:10350000DCFE09490860094840890968A1EB0020F0
:103510000749086005488089096848434FF4FA6103
:1035200001EBE050206010BDB8000020A402002094
:10353000BC00002010B5002402F094FEFFF7ADFEA1
:10354000642002F025FCFFF7A8FE192002F020FC01
:1035500000F0BCF90446204610BD00002DE9F04102
:103560000746884614461D46284600F033F8C5F144
:10357000040007FA00F60F20284100EA080006437D
:1035800006F00F06E21704EBD2625211920002F12C
:10359000E022D2F800212146E31704EBD3635B114C
:1035A000A4EB431C012303FA0CF31A432046E31750
:1035B00004EBD3635B119B0003F1E023C3F800210C
:1035C0000348005D40EA061001490855BDE8F08156
:1035D00000E400E00146072323EA01021202054B42
:1035E00018684FF6FF031840034B18431043014B74
:1035F000186070470CED00E00000FA0500BFFEE720
:103600007047000070B5002100230F22C4781CB35E
:10361000174C246804F4E064C4F5E064C4F30721A3
:10362000C1F10404E3B20A4144789C40E1B28478D9
:10363000144021430C07210E0E4C05786155047887
:1036400004F01F050124AC4005786D11AD0005F1B3
:10365000E025C5F8004109E0047804F01F050124C5
:10366000AC40054D0678761145F8264070BD000047
:103670000CED00E000E400E080E100E002490143DD
:10368000024A1160704700000000FA050CED00E0EE
:1036900010B500F0BDFD00F035FD10BD704710B550
:1036A000002402F0DFFD012002F072FB0D21092051
:1036B000FFF7DEF901210B20FFF7DAF90920FFF708
:1036C000B9F904460D2C01D0002010BD0120FCE703
:1036D0002DE9F04106460F4614461D4602F082FED3
:1036E000002141EA4601C8B202F048FE02F0C6FEDF
:1036F00020B102F09DFE0020BDE8F081384602F0C6
:103700003DFE02F0BBFE02F06DFE012101EB460121
:10371000C8B202F033FE02F0B1FE0DE0012C04D17C
:10372000002002F0F5FD287003E0012002F0F0FD1A
:103730002870601EC4B26D1C002CEFD102F078FE20
:103740000120D9E729B1064A12680243044B1A60E6
:1037500004E0034A12688243014B1A60704700007C
:103760003038024029B1064A12680243044B1A60FD
:1037700004E0034A12688243014B1A60704700005C
:103780004038024029B1064A12680243044B1A60CD
:1037900004E0034A12688243014B1A60704700003C
:1037A0002038024029B1064A12680243044B1A60CD
:1037B00004E0034A12688243014B1A60704700001C
:1037C0004438024029B1064A12680243044B1A6089
:1037D00004E0034A12688243014B1A6070470000FC
:1037E00024380240F0B500210022002402250026E2
:1037F0000223324F3F6807F00C0121B1042905D0A4
:10380000082937D105E02E4F076036E02D4F0760BD
:1038100033E02A4F3F1F3F68C7F38056274F3F1FB3
:103820003F6807F03F036EB1264FB7FBF3F7DFF8B1
:103830008CC0ACF1040CDCF800C0CCF3881C07FB96
:103840000CF40CE01E4FB7FBF3F7DFF870C0ACF1DF
:10385000040CDCF800C0CCF3881C07FB0CF4174FF9
:103860003F1F3F68C7F301477F1C7D00B4FBF5F79E
:10387000076002E0124F076000BF00BF0F4F3F68B4
:1038800007F0F0010909104F7A5C0768D7404760DC
:103890000A4F3F6807F4E051890A0B4F7A5C47688A
:1038A000D7408760054F3F6807F46041490B064FDA
:1038B0007A5C4768D740C760F0BD00000838024016
:1038C0000024F40000127A002800002070B50024C3
:1038D00000BF35E002F086FDEE2002F04FFD02F061
:1038E000CDFD18B102F0A4FD002070BD6100A03133
:1038F000C8B202F043FD02F0C1FD18B102F098FD1C
:103900000020F2E702F094FD02F06CFDEF2002F0DF
:1039100035FD02F0B3FD18B102F08AFD0020E4E7A6
:10392000012002F0F5FC0546002002F0F1FC0646FD
:1039300002F07EFD46EA0520034921F81400641CCC
:10394000082CC7DB0120D0E7A402002021B10288A7
:1039500042F04002028004E002884FF6BF731A4032
:103960000280704710B504462448844208D10121E2
:103970008014FFF727FF0021A014FFF723FF3CE08E
:103980001F48844208D101210014FFF7FBFE0021EB
:103990002014FFF7F7FE30E01A48844208D10121D5
:1039A000C013FFF7EFFE0021E013FFF7EBFE24E06A
:1039B0001548844208D101214014FFF703FF00217C
:1039C0006014FFF7FFFE18E01048844209D101217E
:1039D0000805FFF7F7FE00214FF48010FFF7F2FE15
:1039E0000BE00B48844208D101214805FFF7EAFEAD
:1039F00000214FF40010FFF7E5FE10BD003001403C
:103A000000380040003C00400034014000500140BC
:103A1000005401400246002013890B400BB10120E5
:103A200000E0002070470146888970478181704717
:103A300010B50022028802F441520B884C882343BF
:103A40008C882343CC8823430C8923434C8923430C
:103A50008C892343CC8923431A430280838B4FF202
:103A6000FF74234083830B8A038210BD01461C48E8
:103A7000814201D2002070471A48814201D20820B9
:103A8000F9E71948814201D21020F4E71748814232
:103A900001D21820EFE71648814201D22020EAE740
:103AA0001448814201D22820E5E71348814201D21F
:103AB0003020E0E71148814201D23820DBE710488E
:103AC000814201D24020D6E70E48814201D24820EF
:103AD000D1E70D48814201D25020CCE75820CAE7F7
:103AE000004000080080000800C000080000010835
:103AF0000000020800000408000006080000080892
:103B000000000A0800000C0800000E0801460868C2
:103B1000704700002DE9F04704460E4617464FF067
:103B200009080025A946B4F1006F02D304F0030090
:103B300008B1BDE8F087FEF759FB0020FEF7A4FAB4
:103B4000254604EB87091848854215D211E028461E
:103B5000FFF7DCFF401C58B12846FFF787FF82467D
:103B60000221FEF7A3FA8046B8F1090F01D002E066
:103B70002D1D4D45EBD300BFB8F1090F0CD108E066
:103B800020463168FEF70AFB092800D003E0241D17
:103B9000361D4C45F4D300BF0120FEF775FAFEF741
:103BA000F3FA00BFC5E700000000FF1F70470000E8
:103BB0000CB50020019000903448006840F480303B
:103BC0003249086000BF3148006800F400300090BE
:103BD0000198401C0190009818B90198B0F5A04FC9
:103BE000F1D12A48006800F4003010B101200090A3
:103BF00001E0002000900098012846D12348403081
:103C0000006840F080502149403108602048006839
:103C100040F440401E4908601C48083000681B49B9
:103C2000083108600846006840F400400860084613
:103C3000006840F4A05008601648091F0860081F7B
:103C4000006840F08070091F086000BF0F480068DE
:103C500000F000700028F9D040F205700E490860AD
:103C60000A480830006820F003000849083108605D
:103C70000846006840F00200086000BF03480830B2
:103C8000006800F00C000828F8D10CBD0038024094
:103C90000070004008544007003C0240042808D14E
:103CA0004FF0E021096941F004014FF0E022116179
:103CB00007E04FF0E021096921F004014FF0E02214
:103CC000116170477047000010B51548006840F456
:103CD0007000134908601348006840F00100114962
:103CE000086000200F49083108600E4800680E493E
:103CF00008400C4908600D48091D0860081F00684D
:103D000020F48020091F0860002006490C3108605B
:103D1000FFF74EFF4FF0006001498039086010BD89
:103D200088ED00E000380240FFFFF6FE103000246E
:103D3000F0B50C46154600210022068C4FF6FE77A2
:103D40003E400684018B028C4FF60C7631407E1C7F
:103D500006EA03162E4331434FF6F576324044F01F
:103D60000106324301830284F0BDF0B50C461546CE
:103D7000002100220026078C4FF6EF7C07EA0C0793
:103D80000784018B028C4FF6FF7707EA041640F692
:103D9000FF4739404FF6FF7707EA033739434FF6BD
:103DA000FF7707EA052739434FF65F773A4046F039
:103DB00010073A4301830284F0BDF0B50C46154666
:103DC000002100220026078C4FF6FF6C07EA0C0743
:103DD0000784818B028C4FF6FF7707EA04264FF6A3
:103DE0000C7739404FF6FF7707EA03172F43394323
:103DF0004FF2FF573A4046F480773A43818302847A
:103E0000F0BDF0B50C461546002100220026078CB7
:103E10004EF6FF7C07EA0C070784818B028C4FF675
:103E2000FF7707EA043640F6FF4739404FF6FF7741
:103E300007EA052739434FF6FF7707EA0337394387
:103E400045F6FF773A4046F480573A43818302842F
:103E5000F0BD000010B504212E4800F016FB00282C
:103E600049D02D480078012832D100202A49087015
:103E7000284800F007FB29490988401A2849097891
:103E800040F2712211FB02F100EBC10440F69800F0
:103E9000844202D90020234908702349214A12781C
:103EA00021F812401F480078401C1E49087000216C
:103EB000184800F012FA0021164800F08EFC00218C
:103EC000144800F0CDFB0121124800F006FA0EE084
:103ED0000120114908700020114908700D4800F0B8
:103EE000D1FA0E49088002210A4800F0B9FB0421EA
:103EF000084800F0EFF90121064800F0C6FA40B189
:103F000007480078401C064908700121014800F06C
:103F1000E1F910BD004001400D0100200E0100201C
:103F20000C010020100100206405002010B586B0AF
:103F30000121880700F0A9FA012873D13C480068E4
:103F4000401C3B490860FDF70DF83A4801F02CFC95
:103F500038480C3802F052F8374802F0DDFA35499B
:103F60000C31A1F1180001F0A3FF32491831A1F181
:103F7000240002F027F82F483038D0ED180AB0EEB0
:103F8000600A00F16801303001F04EFD294924310A
:103F900001F1140001F070FF274B264A1832254921
:103FA0002648FEF787FDFDF751FCFDF76FFCFDF796
:103FB00079FC2248D0ED021AB0EE611AD0ED011A58
:103FC000F0EE610AD0ED001AB0EE610A002211464F
:103FD0000220FCF737FC1A48FFF78EFA1849081D33
:103FE000FFF7B2F900200290039004900590009032
:103FF000144C0190648804F2DC5423B2114CA48860
:1040000004F2DC5422B20F4CE48804F2DC5421B2F6
:104010000C4C2488640020B2FCF762FBFEF7F0FF32
:10402000FCF7AEF90121880700F054F906B010BD85
:104030001C00002034030020BC0200209802002055
:10404000FC000020B80500201FB501210846FFF73D
:1040500089FB40F2F310029040F24730ADF80400C3
:104060000020ADF80600ADF80C0001A94FF080402B
:1040700000F0E2FB01221146900700F04EFA012108
:10408000880700F02AF91C208DF8000001208DF827
:1040900001008DF802008DF803006846FFF7B2FAC0
:1040A0001FBD00001CB501210420FFF74BFB0222BD
:1040B00006211348FEF726FC022207211048FEF7CE
:1040C00021FC022208210E48FEF71CFC02220921D5
:1040D0000B48FEF717FC4FF47070009002208DF82B
:1040E000040003208DF8050000208DF80600012053
:1040F0008DF8070069460248FEF7BCFB1CBD0000B6
:104100000008024000B589B001210220FFF72AFB18
:10411000264800F0EFF8FFF7C5FF4CF61450079063
:104120000320ADF818000020ADF81A00ADF820000B
:104130008DF8220006A91D4800F07EFB6020ADF836
:1041400004000120ADF8060000200390ADF8100037
:104150004FF48070ADF8140001A9144800F0E6F99E
:1041600001A9124800F02AFA01A9104800F092FAB9
:1041700001A90E4800F0E8FA08210C4800F014FAF2
:1041800008210A4800F079FA0821084800F0D2FA1C
:104190000821064800F014FB0121044800F08EF8C5
:1041A0000121024800F099F809B000BD0004004068
:1041B0001CB501210220FFF7C5FA0222062113488F
:1041C000FEF7A0FB022207211048FEF79BFB02220C
:1041D00008210E48FEF796FB022209210B48FEF744
:1041E00091FB4FF47070009002208DF804000320C2
:1041F0008DF8050000208DF8060001208DF80700DD
:1042000069460248FEF736FB1CBD00000004024070
:1042100000B589B001210420FFF7A4FA264800F078
:1042200069F8FFF7C5FF4CF6145007900320ADF86E
:1042300018000020ADF81A00ADF820008DF822001B
:1042400006A91D4800F0F8FA6020ADF8040001202E
:10425000ADF8060000200390ADF810004FF4807018
:10426000ADF8140001A9144800F060F901A9124842
:1042700000F0A4F901A9104800F00CFA01A90E48B9
:1042800000F062FA08210C4800F08EF908210A4873
:1042900000F0F3F90821084800F04CFA082106481C
:1042A00000F08EFA0121044800F008F801210248CC
:1042B00000F013F809B000BD0008004021B10288E9
:1042C00042F08002028004E002884FF67F731A40B9
:1042D00002807047CA430282704721B1028842F0CF
:1042E0000102028004E002884FF6FE731A40028049
:1042F0007047000010B504465548844208D101219A
:104300000846FFF75FFA00210120FFF75BFA9DE006
:10431000B4F1804F08D101210846FFF733FA00219C
:104320000120FFF72FFA91E04A48844208D1012189
:104330000220FFF727FA00210220FFF723FA85E089
:104340004548844208D101210420FFF71BFA0021CF
:104350000420FFF717FA79E04048844208D1012190
:104360000820FFF70FFA00210820FFF70BFA6DE095
:104370003B48844208D101211020FFF703FA0021B5
:104380001020FFF7FFF961E03648844208D101218F
:104390002020FFF7F7F900212020FFF7F3F955E07F
:1043A0003148844208D101210220FFF70BFA002195
:1043B0000220FFF707FA49E02C48844209D1012185
:1043C0000804FFF7FFF900214FF48030FFF7FAF9F6
:1043D0003CE02748844209D101214804FFF7F2F963
:1043E00000214FF40030FFF7EDF92FE0214884421F
:1043F00009D101218804FFF7E5F900214FF480205D
:10440000FFF7E0F922E01C48844208D10121402056
:10441000FFF7B8F900214020FFF7B4F916E017487C
:10442000844208D101218020FFF7ACF900218020CF
:10443000FFF7A8F90AE01248844207D1012180154C
:10444000FFF7A0F90021A015FFF79CF910BD0000AF
:10445000000001400004004000080040000C004043
:1044600000100040001400400004014000400140E2
:10447000004401400048014000180040001C00407A
:10448000002000400146886B704730B5024600208E
:1044900000230024158A05EA0103958905EA010431
:1044A00013B10CB1012000E0002030BD70B505460D
:1044B0000C46208850B92389A28861882846FFF7D6
:1044C00037FCE188284600F08AF925E02088042896
:1044D0000AD12389A28861882846FFF746FCE18833
:1044E000284600F085F917E0208808280AD123899A
:1044F000A28861882846FFF760FCE188284600F022
:1045000084F909E02389A28861882846FFF779FCAD
:10451000E188284600F082F970BD1AB183890B4307
:10452000838102E083898B438381704770B50024C7
:1045300000220023058C4FF6FE7635400584028C60
:104540008388048B4FF68F752C40B51E2C400D8848
:104550002C43751E2A408D892A434D882A43104DCD
:10456000A84202D00F4DA84213D14FF6F7752A404A
:10457000CD892A434FF6FB752A408D882A434FF692
:10458000FF652B404FF6FF552B400D8A2B434D8A7C
:104590002B43838004838D684563028470BD0000D3
:1045A00000000140000401400A460021018B4FF643
:1045B000F7731940114301837047000070B5002460
:1045C00000220023058C4FF6EF7635400584028CDF
:1045D0008388048B48F6FF752C404FF6FF452C402E
:1045E0000D884FF6FF7606EA05252C434FF6DF755A
:1045F0002A408D8906EA05152A434D8806EA0515E5
:104600002A43154DA84202D0144DA8421DD14FF6A1
:104610007F752A40CD894FF6FF7606EA05152A43B5
:104620004FF6BF752A408D8806EA05152A434FF6D6
:10463000FF352B404FF2FF752B400D8A06EA8505AA
:104640002B434D8A06EA85052B43838004838D68BE
:104650008563028470BD0000000001400004014039
:104660000A460021018C4FF6DF7319404FF6FF73A5
:1046700003EA02131943018470470A460021018BA3
:104680004FF2FF7319404FF6FF7303EA02231943F9
:104690000183704770B5002400220023058C4FF67B
:1046A000FF6635400584028C8388848B4FF68F75B6
:1046B0002C404FF6FC752C400D882C434FF6FF55CF
:1046C0002A408D894FF6FF7606EA05252A434D8854
:1046D00006EA05252A43154DA84202D0144DA842EA
:1046E0001DD14FF2FF752A40CD894FF6FF7606EABD
:1046F00005252A434FF6FF352A408D8806EA052511
:104700002A434EF6FF752B404DF6FF752B400D8A60
:1047100006EA05152B434D8A06EA05152B438380CF
:1047200084838D68C563028470BD00000000014071
:10473000000401400A460021818B4FF6F7731940AF
:10474000114381837047000070B5002200230024CC
:10475000058C4EF6FF7635400584038C8488828B69
:1047600048F6FF752A404FF6FF452A400D884FF660
:10477000FF7606EA05252A434DF6FF752B408D8905
:1047800006EA05352B434D8806EA05352B430A4DCD
:10479000A84202D0094DA84208D14BF6FF752C4023
:1047A0000D8A4FF6FF7606EA85152C4384808283B6
:1047B0008D680564038470BD000001400004014061
:1047C0000A460021818B4FF2FF7319404FF6FF73A9
:1047D00003EA022319438183704741627047028BC9
:1047E0004FF6F3731A400283028B0A430283704729
:1047F000028B4FF2FF331A400283028B4FF6FF7396
:1048000003EA01231A4302837047828B4FF6F37346
:104810001A408283828B0A4382837047828B4FF2D5
:10482000FF331A408283828B4FF6FF7303EA012322
:104830001A4382837047000000220288184B984276
:104840000ED0184B98420BD0B0F1804F08D0164BC9
:10485000984205D0154B984202D0154B984204D18E
:104860004FF68F731A404B881A43124B984207D069
:10487000114B984204D04FF6FF431A400B891A435C
:1048800002804B68C3620B880385054B984202D0B7
:10489000044B984201D18B7A0386012383827047AF
:1048A00000000140000401400004004000080040F6
:1048B000000C0040001000400014004010B540F211
:1048C0002441114800F0C9F9E0B100210F48FDF77B
:1048D00075F90E48FDF734FAC0F120000C49088044
:1048E00009480088C4B20848001D0088C4B20120ED
:1048F0000849087020210548FDF7FBFA012103480B
:10490000FDF75CF910BD0000004C00404060024023
:10491000140100201201002000B58FB0012188058C
:10492000FEF710FF1748FDF755F900BF1548FDF7D2
:10493000FDF90028FAD14FF000600090202004908B
:104940000020039009904FF480300A900E480290A6
:10495000002008904FF4806006900C4801900020E1
:10496000079005900B9003200C9000200D900E9066
:1049700069460448FDF75AFA01210248FDF71EF97D
:104980000FB000BD40640240240500200410014027
:1049900000B58FB001214805FEF7D4FE1748FDF79A
:1049A00019F900BF1548FDF7C1F90028FAD14FF0F9
:1049B00000600090202004900020039009904FF4A4
:1049C00080300A900E480290002008904FF48060DA
:1049D00006900C4801900020079005900B90032052
:1049E0000C9000200D900E9069460448FDF71EFAC9
:1049F00001210248FDF7E2F80FB000BD406002401F
:104A000098050020044C004000B58FB001218805B6
:104A1000FEF798FE1848FDF7DDF800BF1648FDF7D1
:104A200085F90028FAD14FF0006000902020049012
:104A300040200390002009904FF480300A900F48E6
:104A40000290002008904FF4806006900C4801907E
:104A50000020079005900B9003200C9000200D90F3
:104A60000E9069460448FDF7E1F901210248FDF77F
:104A7000A5F80FB000BD0000B86402400405002096
:104A80000410014000B58FB001214805FEF75AFE21
:104A90001848FDF79FF800BF1648FDF747F90028B2
:104AA000FAD14FF000600090202004904020039045
:104AB000002009904FF480300A900F4802900020A7
:104AC00008904FF4806006900C48019000200790F9
:104AD00005900B9003200C9000200D900E906946DD
:104AE0000448FDF7A3F901210248FDF767F80FB06C
:104AF00000BD00007060024078050020044C0040BA
:104B00001CB501210846FEF71DFE072209210E48AB
:104B1000FDF7F8FE07220A210B48FDF7F3FE4FF4DC
:104B2000C060009002208DF8040003208DF805007D
:104B300000208DF8060001208DF807006946024824
:104B4000FDF798FE1CBD0000000002401CB50121CD
:104B50000846FEF7F7FD082200210D48FDF7D2FEBA
:104B6000082201210A48FDF7CDFE03200090022013
:104B70008DF8040003208DF8050000208DF8060054
:104B800001208DF8070069460148FDF773FE1CBD42
:104B90000000024008B525208DF8000001208DF8A6
:104BA000030002208DF801008DF802006846FEF730
:104BB00029FD08BD08B534208DF8000001208DF8CE
:104BC000030002208DF8010001208DF802006846E4
:104BD000FEF718FD08BD000010B540F22441104852
:104BE00000F03BF8D8B100210E48FCF7E7FF0D4874
:104BF000FDF7A6F8C0F120000B490880084800889E
:104C0000C4B207488088C4B2012008490870202136
:104C10000448FDF76EF901210248FCF7CFFF10BDF3
:104C200000100140406402400A01002008010020F9
:104C300021B1828942F40052828104E082894DF6DA
:104C4000FF731A40828170471AB1838A0B438382B3
:104C500002E0838A8B438382704770B5024600244A
:104C600000230025002040F66A16B14200D100BFA3
:104C7000C1F3421501F01F03012606FA03F3012DCB
:104C800002D19689334006E0022D02D1168A3340C4
:104C900001E0968A33400C12012606FA04F41688C5
:104CA000344013B10CB1012000E0002070BDF0B51C
:104CB0000346002400260025002040F66A17B9426A
:104CC00000D100BF1846C1F3421401F01F060127AE
:104CD00007FA06F5012C01D10C3004E0022C01D1B9
:104CE000103000E014301AB107682F43076002E06B
:104CF0000768AF430760F0BD2DE9FF4705460E4644
:104D00000024A14600BFA046B08900B100BF2C8A94
:104D100024F44054F08804432C82AC8941F20C60A6
:104D20008443B08831890843718908430443AC81C6
:104D3000AC8A24F44074B0890443AC826846FEF720
:104D400051FD2048854202D01F48854202D1DDF83E
:104D50000C9001E0DDF80890A88900F4004040B113
:104D600009EBC90000EB091031684900B0FBF1F70D
:104D700007E009EBC90000EB091031688900B0FBBE
:104D8000F1F76420B7FBF0F004012009642101FB76
:104D90001078A88900F4004040B1322000EBC80030
:104DA000B0FBF1F000F00700044308E0322000EB14
:104DB00008106421B0FBF1F000F00F0004432C81D7
:104DC000BDE8FF87001001400014014000BFFEE76E
:104DD00003B401984100009850EAC12018BF042094
:104DE0004A0D18BF40F0010040F2FF72B2EB515F74
:104DF00008BF40F00200012808BF052002B070473C
:104E000070B5C1482DED020B2DED0E8B82B0119DBA
:104E100025F000449FEDBEDB9FEDBFEB84423EDBFF
:104E2000A4F140511098A1F17F6108430FD0BC4814
:104E3000844202DC28D1109830B39DED100B02B0F3
:104E4000BDEC0E8B02B0BDE8704000F069BC9DED7A
:104E5000100B53EC1D2B51EC100B02F033FB9DEDAE
:104E6000100B41EC180B53EC1E2B51EC100B02F005
:104E700029FB53EC182B02F093F841EC100B02B015
:104E8000BDEC0E8B02B070BD0120FBF73EFA02B004
:104E9000BDEC0E8B02B0BDE8704000F055BCA148DF
:104EA0009FEDA18B844256DA9DED100BB4F1795F32
:104EB0000ADA51EC100BFFF78BFF042808BF00F053
:104EC00053FC9DED100BDAE753EC102B51EC100B5B
:104ED00002F0F8FA41EC190B95480621B0EE490AA8
:104EE000F0EE690A784400F09FFB53EC192B51EC6B
:104EF000100B02F0E7FA41EC1A0B8E48B0EE490AAB
:104F0000F0EE690A0421784400F08EFB53EC192B73
:104F100051EC100B02F0D6FA53EC182B02F040F8CB
:104F200041EC100B51EC1A0B53EC102B02F0E0F893
:104F3000CDE900019DED000B53EC102B9DED100B06
:104F400051EC100B02F0BEFA9DED101B53EC112B2F
:104F500002F026F8D2E09DED100B51EC100B00F0A2
:104F60007FFF53EC182B02F0ABFB9FED730BCDE9E9
:104F7000000153EC102B9DED000B51EC100B02F0D7
:104F8000A1FA41EC190B6E480621B0EE490AF0EE89
:104F9000690A784400F048FB53EC192B51EC100BD4
:104FA00002F090FA41EC1B0B6648B0EE490AF0EEB5
:104FB000690A0421784400F037FB53EC192B51ECBB
:104FC000100B02F07FFA53EC182B01F0E9FF41ECD3
:104FD0001C0B51EC190B01F03BFF41EC180B5A482C
:104FE0009FED5BABA04222DC53EC1C2B51EC1B0B66
:104FF00002F07EF8CDE900019DED000B51EC180B9D
:1050000053EC102B02F05EFA53EC182B01F0C8FFA2
:1050100053EC1A2B02F056FA53EC1D2B02F028FC2D
:1050200053EC1E2B02F04CFB41EC100B5FE08DEDBE
:10503000008B002000909DED000B51EC180B53EC01
:10504000102B01F0ADFF9DED000B41EC1E0B53EC5E
:10505000102B51EC100B02F035FA53EC192B02F027
:105060002FFB53EC1E2B02F043F841EC190B53ECD1
:105070001C2B51EC1B0B02F03BF841EC1B0B53ECCF
:105080001A2B51EC190B02F01DFA53EC1D2B02F0F8
:1050900017FB41EC190B53EC1A2B51EC180B02F0D7
:1050A00011FA53EC1B2B02F00DFA53EC192B02F002
:1050B000DFFB9DED000B41EC180B53EC1A2B51EC70
:1050C000100B02F0FFF99FED249B53EC192B02F01B
:1050D000F7FA41EC100B51EC180B53EC102B02F0CB
:1050E000C7FB53EC192B02F0EBFA41EC100B002D2F
:1050F0003FF7C5AE51EC100B01F014FF41EC100B63
:10510000BDE60000000000000000F03F00000000CD
:10511000075C143326A6913C182D4454FB21F93F1B
:105120000000F07F0000E03F000000000000F03FC2
:10513000602C00006E2C0000000000000000E03F2A
:10514000B22B0000C02B00003333EF3F0000000003
:105150000000000000000040182D4454FB21E93FEE
:1051600070B59B482DED020B2DED068B079D25F0AC
:105170000044A04218DC9748844202DC0AD1069819
:1051800040B19DED060BBDEC068B02B0BDE8704052
:1051900000F0C6BA002DCCBF9FED8F0B9FED900B9A
:1051A000BDEC068B02B070BD8F48A04215DD8F4864
:1051B000A042D8BF4FF0FF3458DD9DED060B51ECF7
:1051C000100BFFF705FE042808BF00F0CDFA9DED97
:1051D000060BBDEC068B02B070BD9DED060B51ECCD
:1051E000100B00F03DFECDE9060181489FED828B5A
:1051F000A0423CDD8248A0421FDD00249FED82AB2F
:105200009DED060B53EC1A2B51EC100B01F0C8FE70
:105210009DED060B41EC190B53EC1A2B51EC100BC6
:1052200002F050F953EC182B02F022FB53EC192B2F
:1052300001F05EFFCDE9060149E09DED060B01247A
:1052400053EC182B51EC100B01F0AAFE9DED060B50
:1052500041EC190B53EC182B51EC100B02F008FB2E
:1052600053EC192B01F044FFCDE906012FE068480B
:10527000A0421FDD02249FED689B9DED060B53ECC1
:10528000192B51EC100B02F01DF953EC182B01F007
:1052900087FE9DED060B41EC180B53EC192B51ECDE
:1052A000100B02F0E5FA53EC182B01F021FFCDE9C9
:1052B00006010CE09DED060B032453EC102B9FED33
:1052C000580B51EC100B01F013FFCDE906019DEDD9
:1052D000060B53EC102B51EC100B02F0F3F841ECE1
:1052E000180B53EC182B02F0EDF841EC190B4E485B
:1052F0000621B0EE490AF0EE690A784400F094F90C
:1053000053EC182B51EC100B02F0DCF841EC180BAD
:105310004648B0EE490AF0EE690A0521784400F0EB
:1053200083F953EC192B51EC100B02F0CBF841EC44
:10533000100B51EC180B53EC102B002C0EDA01F073
:105340002FFE9DED061B53EC112B02F0BBF89DEDDB
:10535000061B53EC112B02F0B3F935E001F020FEEF
:105360009DED061B53EC112B02F0ACF841EC100B39
:105370002F48784400EBC40090ED001B51EC100B5B
:1053800053EC112B02F074FA9DED061B53EC112B1C
:1053900002F06EFA41EC100B2648784400EBC40092
:1053A00090ED001B51EC100B53EC112B02F088F91F
:1053B00041EC100B002DA2BFBDEC068B02B070BDFE
:1053C00051EC100B01F0AEFD41EC100B01E70000B9
:1053D000000010440000F07F182D4454FB21F93FD9
:1053E000182D4454FB21F9BF0000DC3F0000203E93
:1053F0000000F33F00000000000000000000F03F4C
:105400000000E63F00000000000000000000004037
:105410000080034000000000000000000000F83F92
:10542000000000000000F0BF02290000B8280000C2
:1054300042280000FA27000070B56B4E2DED040BDA
:105440002DED028B82B0DDF81CC0DDE905235C4246
:105450002CF000411C4341EAD474049D22F000402A
:10546000B44205D86C422C4340EAD474B4420BD900
:105470009DED061B9DED040B02B0BDEC028B04B04C
:10548000BDE8704000F056B9ACF14054A4F17F641F
:105490001C430BD0022404EAAC7444EAD2740543E2
:1054A0009FED538B9FED542B07D015E09DED040B22
:1054B00051EC100B00F0A4FB42E0002C11BF012CBA
:1054C0009DED040B02B0BDEC028B04BF04B070BDB7
:1054D000022C38D0032C3BD00B439FED491B9FED92
:1054E0004A0B0AD0B14218D1B04209D121F0804113
:1054F00020F08040079105900FE0002A15DA10E0B7
:10550000434B7B44002C08BF93ED000B0DD0012CC6
:1055100010D0022C17D0032C1AD0B0421DD1002A73
:1055200003DAB0EE410AF0EE610A02B0BDEC028B84
:1055300004B070BD93ED000B51EC100B01F0F2FCC8
:1055400041EC100BF1E7B0EE480AF0EE680AECE728
:10555000B0EE420AF0EE620AE7E7401A00153C2876
:10556000C8BF8DED000B19DCBCF1000FBEBF10F100
:105570003C0F9FED290B8DED000B0FDB9DED060B16
:1055800053EC102B9DED040B51EC100B01F0B0FD12
:1055900000F066FC00F034FBCDE90001002C08BFF0
:1055A0009DED000BC1D0012C10D0022C9FED1C0BE7
:1055B00053EC102B9DED000B51EC100B0DD002F0B5
:1055C00057F953EC182B02F053F9B9E7019880F022
:1055D000004001909DED000BA7E702F049F953EC64
:1055E000182B02F06DF8ABE70000F07F0000000020
:1055F000182D4454FB210940182D4454FB2109C0A7
:10560000182D4454FB21F9BF182D4454FB21F93FB8
:105610002A27000000000000000000000000000039
:10562000075C143326A6A13C70B504462DED028B11
:105630004D1E00EBC500B0EE408AF0EE608A90EDA2
:10564000000B35F0060017D053EC182B51EC100B63
:1056500001F038FF41EC100B6D1E04EBC50090ED1E
:10566000001B51EC100B53EC112B01F099FC41EC99
:10567000100B35F00600E7D1022D36D0042D1CD0DA
:10568000062D1CBFBDEC028B70BD53EC182B51ECEA
:10569000100B01F017FF94ED0A1B53EC112B01F0D6
:1056A0007FFC53EC182B01F00DFF94ED081B53EC1D
:1056B000112B01F075FC41EC100B53EC182B51EC45
:1056C000100B01F0FFFE94ED061B53EC112B01F0C3
:1056D00067FC53EC182B01F0F5FE94ED040B53EC32
:1056E000102B01F05DFC41EC100B53EC182B51EC2E
:1056F000100B01F0E7FE94ED021B53EC112B01F0AF
:105700004FFC53EC182B01F0DDFE94ED001B53EC25
:10571000112B01F045FCBDEC028B41EC100B70BD70
:1057200010B553EC102B51EC100B01F039FC41EC8F
:10573000100B10BD10B553EC112B51EC100B01F0F8
:105740002FFC41EC100B10BD9FED050B10B553EC79
:10575000102B51EC100B01F0CBFC41EC100B10BDE9
:1057600000000000000000009FED050B10B553EC99
:10577000102B51EC100B01F0A5FE41EC100B10BDED
:10578000000000000000001091ED000A80ED000A0A
:1057900091ED010A80ED010A91ED020A80ED020A05
:1057A000704700BF7047000010B50446274801F05D
:1057B00083F8274890ED220ADFED260A60EE200AE2
:1057C0009FED251A80EE810A90ED251A1F48801F53
:1057D000B0F9060000EE900AF8EEE00A11EE200A99
:1057E00084ED000A1A4890ED230ADFED1A0A60EEF4
:1057F000200A9FED191A80EE810A90ED261A1348AF
:10580000801FB0F9080000EE900AF8EEE00A11EEF1
:10581000200A84ED010A0E4890ED240ADFED0D0AFE
:1058200060EE200A9FED0C1A80EE810A90ED271A97
:105830000648801FB0F90A0000EE900AF8EEE00A70
:1058400011EE200A84ED020A10BD00000A030020B8
:10585000CC030020000080450AE81C412DE9F041FE
:10586000054600276A48407800287DD0684840688F
:10587000B0F57A7F35D295ED000ADFED660A60EE6D
:10588000200A9FED651A80EE810A6148D0ED040A76
:1058900030EE200A80ED040A95ED010ADFED5D0A85
:1058A00060EE200A9FED5C1A80EE810AD0ED050AB9
:1058B00030EE200A80ED050A95ED020ADFED550A6B
:1058C00060EE200A9FED541A80EE810AD0ED060AA0
:1058D00030EE200A80ED060A4068401C4C494860C2
:1058E00040E000204A494860084690ED040ADFED98
:1058F0004B0A80EE201A407800EB400144481C30EF
:1059000000EB810080ED001A414890ED050ADFEDC3
:10591000430A80EE201A407800EB40013C481C30DE
:1059200000EB810080ED011A394890ED060ADFEDA9
:105930003B0A80EE201A407800EB400134481C30CE
:1059400000EB810080ED021A9FED350A30481030DF
:1059500001F089F901212E48427808308154002055
:105960002B4948702A4800E04EE0407A2849897A5D
:1059700008402749C97A08402549097B084024493D
:10598000497B08402249897B084000283CD00120FF
:1059900005E000221E4908310A54411CC8B20728FC
:1059A000F7DB01201A49C87300241AE0621C02EBDD
:1059B0004203174A1C3202EB830104EB4402194BE9
:1059C00003EB8200FFF7E0FE611C01EB410210498E
:1059D0001C3101EB82009FED120A01F044F9601CBA
:1059E000C4B2062CE2DB0A4A7C32A2F10C010D485B
:1059F000FBF7D6FD0646012E05D1FCF725FD01205B
:105A000003490870012700BF3846BDE8F081000057
:105A1000CC0300200AE81C410000804500007A44C5
:105A2000000000006C040020D0ED000A91ED001A87
:105A300030EEC11AD1ED000A40EE010AC1ED000AB4
:105A4000D0ED010A91ED011A30EEC11AD1ED010A33
:105A500040EE010AC1ED010AD0ED020A91ED021AF1
:105A600030EEC11AD1ED020A40EE010AC1ED020A80
:105A70007047000010B50021234801F0BBF8012158
:105A800021483C3001F0B6F802211F48783001F07F
:105A9000B1F803211C48B43001F0ACF804211A48D5
:105AA000F03001F0A7F80521184801F0A3F806210D
:105AB00016483C3001F09EF807211448783001F078
:105AC00099F808211148B43001F094F809210F48E1
:105AD000F03001F08FF80A210D4801F08BF80B210E
